{
    "_format": "hh-sol-artifact-1",
    "contractName": "BuidlDAO",
    "sourceName": "contracts/BuidlDAO.sol",
    "abi": [
        {
            "anonymous": false,
            "inputs": [
                {
                    "indexed": true,
                    "internalType": "uint256",
                    "name": "project_id",
                    "type": "uint256"
                },
                {
                    "indexed": true,
                    "internalType": "address",
                    "name": "upvoter",
                    "type": "address"
                }
            ],
            "name": "ProjecUpvoted",
            "type": "event"
        },
        {
            "anonymous": false,
            "inputs": [
                {
                    "indexed": true,
                    "internalType": "address",
                    "name": "creator",
                    "type": "address"
                },
                {
                    "indexed": true,
                    "internalType": "uint256",
                    "name": "id",
                    "type": "uint256"
                },
                {
                    "indexed": false,
                    "internalType": "string",
                    "name": "data",
                    "type": "string"
                }
            ],
            "name": "ProjectUploaded",
            "type": "event"
        },
        {
            "anonymous": false,
            "inputs": [
                {
                    "indexed": true,
                    "internalType": "uint256",
                    "name": "project_id",
                    "type": "uint256"
                },
                {
                    "indexed": true,
                    "internalType": "address",
                    "name": "voter",
                    "type": "address"
                },
                {
                    "indexed": false,
                    "internalType": "uint8",
                    "name": "vote",
                    "type": "uint8"
                }
            ],
            "name": "ProjectVoted",
            "type": "event"
        },
        {
            "anonymous": false,
            "inputs": [
                {
                    "indexed": true,
                    "internalType": "address",
                    "name": "user",
                    "type": "address"
                },
                {
                    "indexed": true,
                    "internalType": "address",
                    "name": "followed_by",
                    "type": "address"
                }
            ],
            "name": "UserFollowed",
            "type": "event"
        },
        {
            "inputs": [],
            "name": "buidl_token",
            "outputs": [
                {
                    "internalType": "contract IERC20",
                    "name": "",
                    "type": "address"
                }
            ],
            "stateMutability": "view",
            "type": "function"
        },
        {
            "inputs": [
                {
                    "internalType": "address",
                    "name": "user",
                    "type": "address"
                }
            ],
            "name": "follow",
            "outputs": [],
            "stateMutability": "nonpayable",
            "type": "function"
        },
        {
            "inputs": [
                {
                    "internalType": "uint256",
                    "name": "idx",
                    "type": "uint256"
                }
            ],
            "name": "getProject",
            "outputs": [
                {
                    "components": [
                        {
                            "internalType": "uint256",
                            "name": "id",
                            "type": "uint256"
                        },
                        {
                            "internalType": "string",
                            "name": "title",
                            "type": "string"
                        },
                        {
                            "internalType": "address",
                            "name": "creator",
                            "type": "address"
                        },
                        {
                            "internalType": "uint256",
                            "name": "voteCount",
                            "type": "uint256"
                        },
                        {
                            "internalType": "string",
                            "name": "data",
                            "type": "string"
                        },
                        {
                            "internalType": "uint256",
                            "name": "staked_amount",
                            "type": "uint256"
                        },
                        {
                            "internalType": "uint256",
                            "name": "yesVotes",
                            "type": "uint256"
                        },
                        {
                            "internalType": "uint256",
                            "name": "noVotes",
                            "type": "uint256"
                        },
                        {
                            "internalType": "enum ProposalStatus",
                            "name": "status",
                            "type": "uint8"
                        },
                        {
                            "internalType": "uint256",
                            "name": "created_at",
                            "type": "uint256"
                        }
                    ],
                    "internalType": "struct Project",
                    "name": "",
                    "type": "tuple"
                }
            ],
            "stateMutability": "view",
            "type": "function"
        },
        {
            "inputs": [
                {
                    "internalType": "uint256",
                    "name": "idx",
                    "type": "uint256"
                }
            ],
            "name": "getProjectUpVotes",
            "outputs": [
                {
                    "internalType": "address[]",
                    "name": "",
                    "type": "address[]"
                }
            ],
            "stateMutability": "view",
            "type": "function"
        },
        {
            "inputs": [],
            "name": "getProjects",
            "outputs": [
                {
                    "components": [
                        {
                            "internalType": "uint256",
                            "name": "id",
                            "type": "uint256"
                        },
                        {
                            "internalType": "string",
                            "name": "title",
                            "type": "string"
                        },
                        {
                            "internalType": "address",
                            "name": "creator",
                            "type": "address"
                        },
                        {
                            "internalType": "uint256",
                            "name": "voteCount",
                            "type": "uint256"
                        },
                        {
                            "internalType": "string",
                            "name": "data",
                            "type": "string"
                        },
                        {
                            "internalType": "uint256",
                            "name": "staked_amount",
                            "type": "uint256"
                        },
                        {
                            "internalType": "uint256",
                            "name": "yesVotes",
                            "type": "uint256"
                        },
                        {
                            "internalType": "uint256",
                            "name": "noVotes",
                            "type": "uint256"
                        },
                        {
                            "internalType": "enum ProposalStatus",
                            "name": "status",
                            "type": "uint8"
                        },
                        {
                            "internalType": "uint256",
                            "name": "created_at",
                            "type": "uint256"
                        }
                    ],
                    "internalType": "struct Project[]",
                    "name": "",
                    "type": "tuple[]"
                }
            ],
            "stateMutability": "view",
            "type": "function"
        },
        {
            "inputs": [
                {
                    "internalType": "string",
                    "name": "title",
                    "type": "string"
                },
                {
                    "internalType": "string",
                    "name": "data",
                    "type": "string"
                }
            ],
            "name": "upload",
            "outputs": [],
            "stateMutability": "payable",
            "type": "function"
        },
        {
            "inputs": [
                {
                    "internalType": "uint256",
                    "name": "idx",
                    "type": "uint256"
                }
            ],
            "name": "upvote",
            "outputs": [],
            "stateMutability": "payable",
            "type": "function"
        },
        {
            "inputs": [
                {
                    "internalType": "uint256",
                    "name": "idx",
                    "type": "uint256"
                }
            ],
            "name": "verify",
            "outputs": [],
            "stateMutability": "nonpayable",
            "type": "function"
        },
        {
            "inputs": [
                {
                    "internalType": "uint256",
                    "name": "idx",
                    "type": "uint256"
                },
                {
                    "internalType": "uint8",
                    "name": "_vote",
                    "type": "uint8"
                }
            ],
            "name": "vote",
            "outputs": [],
            "stateMutability": "payable",
            "type": "function"
        }
    ],
    "bytecode": "0x6080604052600160005560c860015534801561001a57600080fd5b5061255f8061002a6000396000f3fe6080604052600436106100865760003560e01c8063943e821611610059578063943e821614610115578063a6f26a1a14610131578063d967ef391461016e578063dcc6012814610199578063f0f3f2c8146101c457610086565b806301ddf0701461008b578063202e4936146100a75780634dbf27cc146100c35780638753367f146100ec575b600080fd5b6100a560048036038101906100a09190611aaa565b610201565b005b6100c160048036038101906100bc9190611a3e565b610499565b005b3480156100cf57600080fd5b506100ea60048036038101906100e59190611a15565b6106f0565b005b3480156100f857600080fd5b50610113600480360381019061010e9190611aaa565b61074d565b005b61012f600480360381019061012a9190611ad3565b610a7e565b005b34801561013d57600080fd5b5061015860048036038101906101539190611aaa565b610e84565b6040516101659190611fe0565b60405180910390f35b34801561017a57600080fd5b5061018361110c565b6040516101909190612024565b60405180910390f35b3480156101a557600080fd5b506101ae611132565b6040516101bb9190612002565b60405180910390f35b3480156101d057600080fd5b506101eb60048036038101906101e69190611aaa565b6114a0565b6040516101f891906120df565b60405180910390f35b80600060036000838152602001908152602001600020600101805461022590612388565b9050141580156102c857506001600281111561026a577f4e487b7100000000000000000000000000000000000000000000000000000000600052602160045260246000fd5b6003600083815260200190815260200160002060080160009054906101000a900460ff1660028111156102c6577f4e487b7100000000000000000000000000000000000000000000000000000000600052602160045260246000fd5b145b610307576040517f08c379a00000000000000000000000000000000000000000000000000000000081526004016102fe9061207f565b60405180910390fd5b60006006600084815260200190815260200160002060003373ffffffffffffffffffffffffffffffffffffffff1673ffffffffffffffffffffffffffffffffffffffff168152602001908152602001600020541461039a576040517f08c379a00000000000000000000000000000000000000000000000000000000081526004016103919061209f565b60405180910390fd5b336005600084815260200190815260200160002060006003600086815260200190815260200160002060030154815260200190815260200160002060006101000a81548173ffffffffffffffffffffffffffffffffffffffff021916908373ffffffffffffffffffffffffffffffffffffffff16021790555060016006600084815260200190815260200160002060003373ffffffffffffffffffffffffffffffffffffffff1673ffffffffffffffffffffffffffffffffffffffff16815260200190815260200160002081905550600360008381526020019081526020016000206003016000815480929190610490906123ba565b91905055505050565b60008060008154809291906104ad906123ba565b919050559050826003600083815260200190815260200160002060010190805190602001906104dd92919061182a565b50336003600083815260200190815260200160002060020160006101000a81548173ffffffffffffffffffffffffffffffffffffffff021916908373ffffffffffffffffffffffffffffffffffffffff1602179055508060036000838152602001908152602001600020600001819055508160036000838152602001908152602001600020600401908051906020019061057892919061182a565b5060006003600083815260200190815260200160002060080160006101000a81548160ff021916908360028111156105d9577f4e487b7100000000000000000000000000000000000000000000000000000000600052602160045260246000fd5b021790555042600360008381526020019081526020016000206009018190555080600460003373ffffffffffffffffffffffffffffffffffffffff1673ffffffffffffffffffffffffffffffffffffffff1681526020019081526020016000206000016000600460003373ffffffffffffffffffffffffffffffffffffffff1673ffffffffffffffffffffffffffffffffffffffff16815260200190815260200160002060010154815260200190815260200160002081905550600460003373ffffffffffffffffffffffffffffffffffffffff1673ffffffffffffffffffffffffffffffffffffffff16815260200190815260200160002060010160008154809291906106e6906123ba565b9190505550505050565b8073ffffffffffffffffffffffffffffffffffffffff163373ffffffffffffffffffffffffffffffffffffffff167f30b3435b456f45779984ddfa456115ee4c20d9e446979b1b9e90dbb7e12b90b760405160405180910390a350565b80600060036000838152602001908152602001600020600101805461077190612388565b9050141580156108145750600060028111156107b6577f4e487b7100000000000000000000000000000000000000000000000000000000600052602160045260246000fd5b6003600083815260200190815260200160002060080160009054906101000a900460ff166002811115610812577f4e487b7100000000000000000000000000000000000000000000000000000000600052602160045260246000fd5b145b610853576040517f08c379a000000000000000000000000000000000000000000000000000000000815260040161084a9061203f565b60405180910390fd5b610873600360008481526020019081526020016000206009015442611765565b426202a3006003600085815260200190815260200160002060090154610899919061222a565b10156108da576040517f08c379a00000000000000000000000000000000000000000000000000000000081526004016108d1906120bf565b60405180910390fd5b60006002811115610914577f4e487b7100000000000000000000000000000000000000000000000000000000600052602160045260246000fd5b6003600084815260200190815260200160002060080160009054906101000a900460ff166002811115610970577f4e487b7100000000000000000000000000000000000000000000000000000000600052602160045260246000fd5b1415610a7a576003600083815260200190815260200160002060070154600360008481526020019081526020016000206006015410610a135760016003600084815260200190815260200160002060080160006101000a81548160ff02191690836002811115610a09577f4e487b7100000000000000000000000000000000000000000000000000000000600052602160045260246000fd5b0217905550610a79565b60026003600084815260200190815260200160002060080160006101000a81548160ff02191690836002811115610a73577f4e487b7100000000000000000000000000000000000000000000000000000000600052602160045260246000fd5b02179055505b5b5050565b816000600360008381526020019081526020016000206001018054610aa290612388565b905014158015610b45575060006002811115610ae7577f4e487b7100000000000000000000000000000000000000000000000000000000600052602160045260246000fd5b6003600083815260200190815260200160002060080160009054906101000a900460ff166002811115610b43577f4e487b7100000000000000000000000000000000000000000000000000000000600052602160045260246000fd5b145b610b84576040517f08c379a0000000000000000000000000000000000000000000000000000000008152600401610b7b9061203f565b60405180910390fd5b60006002811115610bbe577f4e487b7100000000000000000000000000000000000000000000000000000000600052602160045260246000fd5b6007600085815260200190815260200160002060003373ffffffffffffffffffffffffffffffffffffffff1673ffffffffffffffffffffffffffffffffffffffff16815260200190815260200160002060009054906101000a900460ff166002811115610c54577f4e487b7100000000000000000000000000000000000000000000000000000000600052602160045260246000fd5b14610c94576040517f08c379a0000000000000000000000000000000000000000000000000000000008152600401610c8b9061205f565b60405180910390fd5b8160ff166002811115610cd0577f4e487b7100000000000000000000000000000000000000000000000000000000600052602160045260246000fd5b6007600085815260200190815260200160002060003373ffffffffffffffffffffffffffffffffffffffff1673ffffffffffffffffffffffffffffffffffffffff16815260200190815260200160002060006101000a81548160ff02191690836002811115610d68577f4e487b7100000000000000000000000000000000000000000000000000000000600052602160045260246000fd5b021790555060016002811115610da7577f4e487b7100000000000000000000000000000000000000000000000000000000600052602160045260246000fd5b8260ff166002811115610de3577f4e487b7100000000000000000000000000000000000000000000000000000000600052602160045260246000fd5b6002811115610e1b577f4e487b7100000000000000000000000000000000000000000000000000000000600052602160045260246000fd5b1415610e5257600360008481526020019081526020016000206006016000815480929190610e48906123ba565b9190505550610e7f565b600360008481526020019081526020016000206007016000815480929190610e79906123ba565b91905055505b505050565b6060816000600360008381526020019081526020016000206001018054610eaa90612388565b905014158015610f4d575060016002811115610eef577f4e487b7100000000000000000000000000000000000000000000000000000000600052602160045260246000fd5b6003600083815260200190815260200160002060080160009054906101000a900460ff166002811115610f4b577f4e487b7100000000000000000000000000000000000000000000000000000000600052602160045260246000fd5b145b610f8c576040517f08c379a0000000000000000000000000000000000000000000000000000000008152600401610f839061207f565b60405180910390fd5b6000600360008581526020019081526020016000206003015467ffffffffffffffff811115610fe4577f4e487b7100000000000000000000000000000000000000000000000000000000600052604160045260246000fd5b6040519080825280602002602001820160405280156110125781602001602082028036833780820191505090505b50905060005b60036000868152602001908152602001600020600301548110156111015760056000868152602001908152602001600020600082815260200190815260200160002060009054906101000a900473ffffffffffffffffffffffffffffffffffffffff168282815181106110b4577f4e487b7100000000000000000000000000000000000000000000000000000000600052603260045260246000fd5b602002602001019073ffffffffffffffffffffffffffffffffffffffff16908173ffffffffffffffffffffffffffffffffffffffff168152505080806110f9906123ba565b915050611018565b508092505050919050565b600260009054906101000a900473ffffffffffffffffffffffffffffffffffffffff1681565b6060600060016000546111459190612280565b67ffffffffffffffff811115611184577f4e487b7100000000000000000000000000000000000000000000000000000000600052604160045260246000fd5b6040519080825280602002602001820160405280156111bd57816020015b6111aa6118b0565b8152602001906001900390816111a25790505b50905060005b60016000546111d29190612280565b81101561149857600360006001836111ea919061222a565b8152602001908152602001600020604051806101400160405290816000820154815260200160018201805461121e90612388565b80601f016020809104026020016040519081016040528092919081815260200182805461124a90612388565b80156112975780601f1061126c57610100808354040283529160200191611297565b820191906000526020600020905b81548152906001019060200180831161127a57829003601f168201915b505050505081526020016002820160009054906101000a900473ffffffffffffffffffffffffffffffffffffffff1673ffffffffffffffffffffffffffffffffffffffff1673ffffffffffffffffffffffffffffffffffffffff1681526020016003820154815260200160048201805461131090612388565b80601f016020809104026020016040519081016040528092919081815260200182805461133c90612388565b80156113895780601f1061135e57610100808354040283529160200191611389565b820191906000526020600020905b81548152906001019060200180831161136c57829003601f168201915b505050505081526020016005820154815260200160068201548152602001600782015481526020016008820160009054906101000a900460ff1660028111156113fb577f4e487b7100000000000000000000000000000000000000000000000000000000600052602160045260246000fd5b6002811115611433577f4e487b7100000000000000000000000000000000000000000000000000000000600052602160045260246000fd5b815260200160098201548152505082828151811061147a577f4e487b7100000000000000000000000000000000000000000000000000000000600052603260045260246000fd5b60200260200101819052508080611490906123ba565b9150506111c3565b508091505090565b6114a86118b0565b600060036000848152602001908152602001600020600001541415611502576040517f08c379a00000000000000000000000000000000000000000000000000000000081526004016114f99061203f565b60405180910390fd5b60036000838152602001908152602001600020604051806101400160405290816000820154815260200160018201805461153b90612388565b80601f016020809104026020016040519081016040528092919081815260200182805461156790612388565b80156115b45780601f10611589576101008083540402835291602001916115b4565b820191906000526020600020905b81548152906001019060200180831161159757829003601f168201915b505050505081526020016002820160009054906101000a900473ffffffffffffffffffffffffffffffffffffffff1673ffffffffffffffffffffffffffffffffffffffff1673ffffffffffffffffffffffffffffffffffffffff1681526020016003820154815260200160048201805461162d90612388565b80601f016020809104026020016040519081016040528092919081815260200182805461165990612388565b80156116a65780601f1061167b576101008083540402835291602001916116a6565b820191906000526020600020905b81548152906001019060200180831161168957829003601f168201915b505050505081526020016005820154815260200160068201548152602001600782015481526020016008820160009054906101000a900460ff166002811115611718577f4e487b7100000000000000000000000000000000000000000000000000000000600052602160045260246000fd5b6002811115611750577f4e487b7100000000000000000000000000000000000000000000000000000000600052602160045260246000fd5b81526020016009820154815250509050919050565b6117fd828260405160240161177b929190612101565b6040516020818303038152906040527f6c0f6980000000000000000000000000000000000000000000000000000000007bffffffffffffffffffffffffffffffffffffffffffffffffffffffff19166020820180517bffffffffffffffffffffffffffffffffffffffffffffffffffffffff8381831617835250505050611801565b5050565b60008151905060006a636f6e736f6c652e6c6f679050602083016000808483855afa5050505050565b82805461183690612388565b90600052602060002090601f016020900481019282611858576000855561189f565b82601f1061187157805160ff191683800117855561189f565b8280016001018555821561189f579182015b8281111561189e578251825591602001919060010190611883565b5b5090506118ac9190611951565b5090565b6040518061014001604052806000815260200160608152602001600073ffffffffffffffffffffffffffffffffffffffff168152602001600081526020016060815260200160008152602001600081526020016000815260200160006002811115611944577f4e487b7100000000000000000000000000000000000000000000000000000000600052602160045260246000fd5b8152602001600081525090565b5b8082111561196a576000816000905550600101611952565b5090565b600061198161197c8461215b565b61212a565b90508281526020810184848401111561199957600080fd5b6119a4848285612346565b509392505050565b6000813590506119bb816124e4565b92915050565b600082601f8301126119d257600080fd5b81356119e284826020860161196e565b91505092915050565b6000813590506119fa816124fb565b92915050565b600081359050611a0f81612512565b92915050565b600060208284031215611a2757600080fd5b6000611a35848285016119ac565b91505092915050565b60008060408385031215611a5157600080fd5b600083013567ffffffffffffffff811115611a6b57600080fd5b611a77858286016119c1565b925050602083013567ffffffffffffffff811115611a9457600080fd5b611aa0858286016119c1565b9150509250929050565b600060208284031215611abc57600080fd5b6000611aca848285016119eb565b91505092915050565b60008060408385031215611ae657600080fd5b6000611af4858286016119eb565b9250506020611b0585828601611a00565b9150509250929050565b6000611b1b8383611b3b565b60208301905092915050565b6000611b338383611e00565b905092915050565b611b44816122b4565b82525050565b6000611b55826121ab565b611b5f81856121e6565b9350611b6a8361218b565b8060005b83811015611b9b578151611b828882611b0f565b9750611b8d836121cc565b925050600181019050611b6e565b5085935050505092915050565b6000611bb3826121b6565b611bbd81856121f7565b935083602082028501611bcf8561219b565b8060005b85811015611c0b5784840389528151611bec8582611b27565b9450611bf7836121d9565b925060208a01995050600181019050611bd3565b50829750879550505050505092915050565b611c2681612310565b82525050565b611c3581612334565b82525050565b6000611c46826121c1565b611c508185612208565b9350611c60818560208601612355565b611c69816124bf565b840191505092915050565b6000611c81602283612219565b91507f70726f706f73616c20646f65736e2774206578697374206f7220696e76616c6960008301527f64200000000000000000000000000000000000000000000000000000000000006020830152604082019050919050565b6000611ce7600d83612219565b91507f416c726561647920766f746564000000000000000000000000000000000000006000830152602082019050919050565b6000611d27602583612219565b91507f70726f6a65637420646f65736e2774206578697374206f72206e6f742076657260008301527f69666965640000000000000000000000000000000000000000000000000000006020830152604082019050919050565b6000611d8d600f83612219565b91507f416c7265616479207570766f74656400000000000000000000000000000000006000830152602082019050919050565b6000611dcd601c83612219565b91507f20766572696669636174696f6e20697320696e2070726f6772657373000000006000830152602082019050919050565b600061014083016000830151611e196000860182611fc2565b5060208301518482036020860152611e318282611c3b565b9150506040830151611e466040860182611b3b565b506060830151611e596060860182611fc2565b5060808301518482036080860152611e718282611c3b565b91505060a0830151611e8660a0860182611fc2565b5060c0830151611e9960c0860182611fc2565b5060e0830151611eac60e0860182611fc2565b50610100830151611ec1610100860182611c2c565b50610120830151611ed6610120860182611fc2565b508091505092915050565b600061014083016000830151611efa6000860182611fc2565b5060208301518482036020860152611f128282611c3b565b9150506040830151611f276040860182611b3b565b506060830151611f3a6060860182611fc2565b5060808301518482036080860152611f528282611c3b565b91505060a0830151611f6760a0860182611fc2565b5060c0830151611f7a60c0860182611fc2565b5060e0830151611f8d60e0860182611fc2565b50610100830151611fa2610100860182611c2c565b50610120830151611fb7610120860182611fc2565b508091505092915050565b611fcb816122f9565b82525050565b611fda816122f9565b82525050565b60006020820190508181036000830152611ffa8184611b4a565b905092915050565b6000602082019050818103600083015261201c8184611ba8565b905092915050565b60006020820190506120396000830184611c1d565b92915050565b6000602082019050818103600083015261205881611c74565b9050919050565b6000602082019050818103600083015261207881611cda565b9050919050565b6000602082019050818103600083015261209881611d1a565b9050919050565b600060208201905081810360008301526120b881611d80565b9050919050565b600060208201905081810360008301526120d881611dc0565b9050919050565b600060208201905081810360008301526120f98184611ee1565b905092915050565b60006040820190506121166000830185611fd1565b6121236020830184611fd1565b9392505050565b6000604051905081810181811067ffffffffffffffff8211171561215157612150612490565b5b8060405250919050565b600067ffffffffffffffff82111561217657612175612490565b5b601f19601f8301169050602081019050919050565b6000819050602082019050919050565b6000819050602082019050919050565b600081519050919050565b600081519050919050565b600081519050919050565b6000602082019050919050565b6000602082019050919050565b600082825260208201905092915050565b600082825260208201905092915050565b600082825260208201905092915050565b600082825260208201905092915050565b6000612235826122f9565b9150612240836122f9565b9250827fffffffffffffffffffffffffffffffffffffffffffffffffffffffffffffffff0382111561227557612274612403565b5b828201905092915050565b600061228b826122f9565b9150612296836122f9565b9250828210156122a9576122a8612403565b5b828203905092915050565b60006122bf826122d9565b9050919050565b60008190506122d4826124d0565b919050565b600073ffffffffffffffffffffffffffffffffffffffff82169050919050565b6000819050919050565b600060ff82169050919050565b600061231b82612322565b9050919050565b600061232d826122d9565b9050919050565b600061233f826122c6565b9050919050565b82818337600083830152505050565b60005b83811015612373578082015181840152602081019050612358565b83811115612382576000848401525b50505050565b600060028204905060018216806123a057607f821691505b602082108114156123b4576123b3612461565b5b50919050565b60006123c5826122f9565b91507fffffffffffffffffffffffffffffffffffffffffffffffffffffffffffffffff8214156123f8576123f7612403565b5b600182019050919050565b7f4e487b7100000000000000000000000000000000000000000000000000000000600052601160045260246000fd5b7f4e487b7100000000000000000000000000000000000000000000000000000000600052602160045260246000fd5b7f4e487b7100000000000000000000000000000000000000000000000000000000600052602260045260246000fd5b7f4e487b7100000000000000000000000000000000000000000000000000000000600052604160045260246000fd5b6000601f19601f8301169050919050565b600381106124e1576124e0612432565b5b50565b6124ed816122b4565b81146124f857600080fd5b50565b612504816122f9565b811461250f57600080fd5b50565b61251b81612303565b811461252657600080fd5b5056fea2646970667358221220818fbb9d18fc24504d969ee078af779b535751ea93a271a1b40b0dd87e9015b664736f6c63430008000033",
    "linkReferences": {},
    "deployedLinkReferences": {}
}