{
  "_format": "hh-sol-artifact-1",
  "contractName": "BuidlDAO",
  "sourceName": "contracts/BuidlDAO.sol",
  "abi": [
    {
      "anonymous": false,
      "inputs": [
        {
          "indexed": true,
          "internalType": "uint256",
          "name": "project_id",
          "type": "uint256"
        },
        {
          "indexed": true,
          "internalType": "address",
          "name": "upvoter",
          "type": "address"
        }
      ],
      "name": "ProjecUpvoted",
      "type": "event"
    },
    {
      "anonymous": false,
      "inputs": [
        {
          "indexed": true,
          "internalType": "address",
          "name": "creator",
          "type": "address"
        },
        {
          "indexed": true,
          "internalType": "uint256",
          "name": "id",
          "type": "uint256"
        },
        {
          "indexed": false,
          "internalType": "string",
          "name": "data",
          "type": "string"
        }
      ],
      "name": "ProjectUploaded",
      "type": "event"
    },
    {
      "anonymous": false,
      "inputs": [
        {
          "indexed": true,
          "internalType": "uint256",
          "name": "project_id",
          "type": "uint256"
        },
        {
          "indexed": true,
          "internalType": "address",
          "name": "voter",
          "type": "address"
        },
        {
          "indexed": false,
          "internalType": "uint8",
          "name": "vote",
          "type": "uint8"
        }
      ],
      "name": "ProjectVoted",
      "type": "event"
    },
    {
      "anonymous": false,
      "inputs": [
        {
          "indexed": true,
          "internalType": "address",
          "name": "user",
          "type": "address"
        },
        {
          "indexed": true,
          "internalType": "address",
          "name": "followed_by",
          "type": "address"
        }
      ],
      "name": "UserFollowed",
      "type": "event"
    },
    {
      "inputs": [],
      "name": "buidl_token",
      "outputs": [
        {
          "internalType": "contract IERC20",
          "name": "",
          "type": "address"
        }
      ],
      "stateMutability": "view",
      "type": "function"
    },
    {
      "inputs": [
        {
          "internalType": "address",
          "name": "user",
          "type": "address"
        }
      ],
      "name": "follow",
      "outputs": [],
      "stateMutability": "nonpayable",
      "type": "function"
    },
    {
      "inputs": [
        {
          "internalType": "uint256",
          "name": "idx",
          "type": "uint256"
        }
      ],
      "name": "getProject",
      "outputs": [
        {
          "components": [
            {
              "internalType": "uint256",
              "name": "id",
              "type": "uint256"
            },
            {
              "internalType": "string",
              "name": "title",
              "type": "string"
            },
            {
              "internalType": "address",
              "name": "creator",
              "type": "address"
            },
            {
              "internalType": "uint256",
              "name": "voteCount",
              "type": "uint256"
            },
            {
              "internalType": "string",
              "name": "data",
              "type": "string"
            },
            {
              "internalType": "uint256",
              "name": "staked_amount",
              "type": "uint256"
            },
            {
              "internalType": "uint256",
              "name": "yesVotes",
              "type": "uint256"
            },
            {
              "internalType": "uint256",
              "name": "noVotes",
              "type": "uint256"
            },
            {
              "internalType": "enum ProposalStatus",
              "name": "status",
              "type": "uint8"
            },
            {
              "internalType": "uint256",
              "name": "created_at",
              "type": "uint256"
            }
          ],
          "internalType": "struct Project",
          "name": "",
          "type": "tuple"
        }
      ],
      "stateMutability": "view",
      "type": "function"
    },
    {
      "inputs": [
        {
          "internalType": "uint256",
          "name": "idx",
          "type": "uint256"
        }
      ],
      "name": "getProjectUpVotes",
      "outputs": [
        {
          "internalType": "address[]",
          "name": "",
          "type": "address[]"
        }
      ],
      "stateMutability": "view",
      "type": "function"
    },
    {
      "inputs": [],
      "name": "getProjects",
      "outputs": [
        {
          "components": [
            {
              "internalType": "uint256",
              "name": "id",
              "type": "uint256"
            },
            {
              "internalType": "string",
              "name": "title",
              "type": "string"
            },
            {
              "internalType": "address",
              "name": "creator",
              "type": "address"
            },
            {
              "internalType": "uint256",
              "name": "voteCount",
              "type": "uint256"
            },
            {
              "internalType": "string",
              "name": "data",
              "type": "string"
            },
            {
              "internalType": "uint256",
              "name": "staked_amount",
              "type": "uint256"
            },
            {
              "internalType": "uint256",
              "name": "yesVotes",
              "type": "uint256"
            },
            {
              "internalType": "uint256",
              "name": "noVotes",
              "type": "uint256"
            },
            {
              "internalType": "enum ProposalStatus",
              "name": "status",
              "type": "uint8"
            },
            {
              "internalType": "uint256",
              "name": "created_at",
              "type": "uint256"
            }
          ],
          "internalType": "struct Project[]",
          "name": "",
          "type": "tuple[]"
        }
      ],
      "stateMutability": "view",
      "type": "function"
    },
    {
      "inputs": [
        {
          "internalType": "string",
          "name": "title",
          "type": "string"
        },
        {
          "internalType": "string",
          "name": "data",
          "type": "string"
        }
      ],
      "name": "upload",
      "outputs": [],
      "stateMutability": "payable",
      "type": "function"
    },
    {
      "inputs": [
        {
          "internalType": "uint256",
          "name": "idx",
          "type": "uint256"
        }
      ],
      "name": "upvote",
      "outputs": [],
      "stateMutability": "payable",
      "type": "function"
    },
    {
      "inputs": [
        {
          "internalType": "uint256",
          "name": "idx",
          "type": "uint256"
        }
      ],
      "name": "verify",
      "outputs": [],
      "stateMutability": "nonpayable",
      "type": "function"
    },
    {
      "inputs": [
        {
          "internalType": "uint256",
          "name": "idx",
          "type": "uint256"
        },
        {
          "internalType": "uint8",
          "name": "_vote",
          "type": "uint8"
        }
      ],
      "name": "vote",
      "outputs": [],
      "stateMutability": "payable",
      "type": "function"
    }
  ],
  "bytecode": "0x6080604052600160005560c860015534801561001a57600080fd5b506124418061002a6000396000f3fe6080604052600436106100865760003560e01c8063943e821611610059578063943e821614610115578063a6f26a1a14610131578063d967ef391461016e578063dcc6012814610199578063f0f3f2c8146101c457610086565b806301ddf0701461008b578063202e4936146100a75780634dbf27cc146100c35780638753367f146100ec575b600080fd5b6100a560048036038101906100a091906119c4565b610201565b005b6100c160048036038101906100bc9190611958565b610499565b005b3480156100cf57600080fd5b506100ea60048036038101906100e5919061192f565b6106f0565b005b3480156100f857600080fd5b50610113600480360381019061010e91906119c4565b61074d565b005b61012f600480360381019061012a91906119ed565b610a5d565b005b34801561013d57600080fd5b50610158600480360381019061015391906119c4565b610e63565b6040516101659190611eeb565b60405180910390f35b34801561017a57600080fd5b506101836110eb565b6040516101909190611f2f565b60405180910390f35b3480156101a557600080fd5b506101ae611111565b6040516101bb9190611f0d565b60405180910390f35b3480156101d057600080fd5b506101eb60048036038101906101e691906119c4565b61147f565b6040516101f89190611fea565b60405180910390f35b8060006003600083815260200190815260200160002060010180546102259061226a565b9050141580156102c857506001600281111561026a577f4e487b7100000000000000000000000000000000000000000000000000000000600052602160045260246000fd5b6003600083815260200190815260200160002060080160009054906101000a900460ff1660028111156102c6577f4e487b7100000000000000000000000000000000000000000000000000000000600052602160045260246000fd5b145b610307576040517f08c379a00000000000000000000000000000000000000000000000000000000081526004016102fe90611f8a565b60405180910390fd5b60006006600084815260200190815260200160002060003373ffffffffffffffffffffffffffffffffffffffff1673ffffffffffffffffffffffffffffffffffffffff168152602001908152602001600020541461039a576040517f08c379a000000000000000000000000000000000000000000000000000000000815260040161039190611faa565b60405180910390fd5b336005600084815260200190815260200160002060006003600086815260200190815260200160002060030154815260200190815260200160002060006101000a81548173ffffffffffffffffffffffffffffffffffffffff021916908373ffffffffffffffffffffffffffffffffffffffff16021790555060016006600084815260200190815260200160002060003373ffffffffffffffffffffffffffffffffffffffff1673ffffffffffffffffffffffffffffffffffffffff168152602001908152602001600020819055506003600083815260200190815260200160002060030160008154809291906104909061229c565b91905055505050565b60008060008154809291906104ad9061229c565b919050559050826003600083815260200190815260200160002060010190805190602001906104dd929190611744565b50336003600083815260200190815260200160002060020160006101000a81548173ffffffffffffffffffffffffffffffffffffffff021916908373ffffffffffffffffffffffffffffffffffffffff16021790555080600360008381526020019081526020016000206000018190555081600360008381526020019081526020016000206004019080519060200190610578929190611744565b5060006003600083815260200190815260200160002060080160006101000a81548160ff021916908360028111156105d9577f4e487b7100000000000000000000000000000000000000000000000000000000600052602160045260246000fd5b021790555042600360008381526020019081526020016000206009018190555080600460003373ffffffffffffffffffffffffffffffffffffffff1673ffffffffffffffffffffffffffffffffffffffff1681526020019081526020016000206000016000600460003373ffffffffffffffffffffffffffffffffffffffff1673ffffffffffffffffffffffffffffffffffffffff16815260200190815260200160002060010154815260200190815260200160002081905550600460003373ffffffffffffffffffffffffffffffffffffffff1673ffffffffffffffffffffffffffffffffffffffff16815260200190815260200160002060010160008154809291906106e69061229c565b9190505550505050565b8073ffffffffffffffffffffffffffffffffffffffff163373ffffffffffffffffffffffffffffffffffffffff167f30b3435b456f45779984ddfa456115ee4c20d9e446979b1b9e90dbb7e12b90b760405160405180910390a350565b8060006003600083815260200190815260200160002060010180546107719061226a565b9050141580156108145750600060028111156107b6577f4e487b7100000000000000000000000000000000000000000000000000000000600052602160045260246000fd5b6003600083815260200190815260200160002060080160009054906101000a900460ff166002811115610812577f4e487b7100000000000000000000000000000000000000000000000000000000600052602160045260246000fd5b145b610853576040517f08c379a000000000000000000000000000000000000000000000000000000000815260040161084a90611f4a565b60405180910390fd5b426202a3006003600085815260200190815260200160002060090154610879919061210c565b106108b9576040517f08c379a00000000000000000000000000000000000000000000000000000000081526004016108b090611fca565b60405180910390fd5b600060028111156108f3577f4e487b7100000000000000000000000000000000000000000000000000000000600052602160045260246000fd5b6003600084815260200190815260200160002060080160009054906101000a900460ff16600281111561094f577f4e487b7100000000000000000000000000000000000000000000000000000000600052602160045260246000fd5b1415610a595760036000838152602001908152602001600020600701546003600084815260200190815260200160002060060154106109f25760016003600084815260200190815260200160002060080160006101000a81548160ff021916908360028111156109e8577f4e487b7100000000000000000000000000000000000000000000000000000000600052602160045260246000fd5b0217905550610a58565b60026003600084815260200190815260200160002060080160006101000a81548160ff02191690836002811115610a52577f4e487b7100000000000000000000000000000000000000000000000000000000600052602160045260246000fd5b02179055505b5b5050565b816000600360008381526020019081526020016000206001018054610a819061226a565b905014158015610b24575060006002811115610ac6577f4e487b7100000000000000000000000000000000000000000000000000000000600052602160045260246000fd5b6003600083815260200190815260200160002060080160009054906101000a900460ff166002811115610b22577f4e487b7100000000000000000000000000000000000000000000000000000000600052602160045260246000fd5b145b610b63576040517f08c379a0000000000000000000000000000000000000000000000000000000008152600401610b5a90611f4a565b60405180910390fd5b60006002811115610b9d577f4e487b7100000000000000000000000000000000000000000000000000000000600052602160045260246000fd5b6007600085815260200190815260200160002060003373ffffffffffffffffffffffffffffffffffffffff1673ffffffffffffffffffffffffffffffffffffffff16815260200190815260200160002060009054906101000a900460ff166002811115610c33577f4e487b7100000000000000000000000000000000000000000000000000000000600052602160045260246000fd5b14610c73576040517f08c379a0000000000000000000000000000000000000000000000000000000008152600401610c6a90611f6a565b60405180910390fd5b8160ff166002811115610caf577f4e487b7100000000000000000000000000000000000000000000000000000000600052602160045260246000fd5b6007600085815260200190815260200160002060003373ffffffffffffffffffffffffffffffffffffffff1673ffffffffffffffffffffffffffffffffffffffff16815260200190815260200160002060006101000a81548160ff02191690836002811115610d47577f4e487b7100000000000000000000000000000000000000000000000000000000600052602160045260246000fd5b021790555060016002811115610d86577f4e487b7100000000000000000000000000000000000000000000000000000000600052602160045260246000fd5b8260ff166002811115610dc2577f4e487b7100000000000000000000000000000000000000000000000000000000600052602160045260246000fd5b6002811115610dfa577f4e487b7100000000000000000000000000000000000000000000000000000000600052602160045260246000fd5b1415610e3157600360008481526020019081526020016000206006016000815480929190610e279061229c565b9190505550610e5e565b600360008481526020019081526020016000206007016000815480929190610e589061229c565b91905055505b505050565b6060816000600360008381526020019081526020016000206001018054610e899061226a565b905014158015610f2c575060016002811115610ece577f4e487b7100000000000000000000000000000000000000000000000000000000600052602160045260246000fd5b6003600083815260200190815260200160002060080160009054906101000a900460ff166002811115610f2a577f4e487b7100000000000000000000000000000000000000000000000000000000600052602160045260246000fd5b145b610f6b576040517f08c379a0000000000000000000000000000000000000000000000000000000008152600401610f6290611f8a565b60405180910390fd5b6000600360008581526020019081526020016000206003015467ffffffffffffffff811115610fc3577f4e487b7100000000000000000000000000000000000000000000000000000000600052604160045260246000fd5b604051908082528060200260200182016040528015610ff15781602001602082028036833780820191505090505b50905060005b60036000868152602001908152602001600020600301548110156110e05760056000868152602001908152602001600020600082815260200190815260200160002060009054906101000a900473ffffffffffffffffffffffffffffffffffffffff16828281518110611093577f4e487b7100000000000000000000000000000000000000000000000000000000600052603260045260246000fd5b602002602001019073ffffffffffffffffffffffffffffffffffffffff16908173ffffffffffffffffffffffffffffffffffffffff168152505080806110d89061229c565b915050610ff7565b508092505050919050565b600260009054906101000a900473ffffffffffffffffffffffffffffffffffffffff1681565b6060600060016000546111249190612162565b67ffffffffffffffff811115611163577f4e487b7100000000000000000000000000000000000000000000000000000000600052604160045260246000fd5b60405190808252806020026020018201604052801561119c57816020015b6111896117ca565b8152602001906001900390816111815790505b50905060005b60016000546111b19190612162565b81101561147757600360006001836111c9919061210c565b815260200190815260200160002060405180610140016040529081600082015481526020016001820180546111fd9061226a565b80601f01602080910402602001604051908101604052809291908181526020018280546112299061226a565b80156112765780601f1061124b57610100808354040283529160200191611276565b820191906000526020600020905b81548152906001019060200180831161125957829003601f168201915b505050505081526020016002820160009054906101000a900473ffffffffffffffffffffffffffffffffffffffff1673ffffffffffffffffffffffffffffffffffffffff1673ffffffffffffffffffffffffffffffffffffffff168152602001600382015481526020016004820180546112ef9061226a565b80601f016020809104026020016040519081016040528092919081815260200182805461131b9061226a565b80156113685780601f1061133d57610100808354040283529160200191611368565b820191906000526020600020905b81548152906001019060200180831161134b57829003601f168201915b505050505081526020016005820154815260200160068201548152602001600782015481526020016008820160009054906101000a900460ff1660028111156113da577f4e487b7100000000000000000000000000000000000000000000000000000000600052602160045260246000fd5b6002811115611412577f4e487b7100000000000000000000000000000000000000000000000000000000600052602160045260246000fd5b8152602001600982015481525050828281518110611459577f4e487b7100000000000000000000000000000000000000000000000000000000600052603260045260246000fd5b6020026020010181905250808061146f9061229c565b9150506111a2565b508091505090565b6114876117ca565b6000600360008481526020019081526020016000206000015414156114e1576040517f08c379a00000000000000000000000000000000000000000000000000000000081526004016114d890611f4a565b60405180910390fd5b60036000838152602001908152602001600020604051806101400160405290816000820154815260200160018201805461151a9061226a565b80601f01602080910402602001604051908101604052809291908181526020018280546115469061226a565b80156115935780601f1061156857610100808354040283529160200191611593565b820191906000526020600020905b81548152906001019060200180831161157657829003601f168201915b505050505081526020016002820160009054906101000a900473ffffffffffffffffffffffffffffffffffffffff1673ffffffffffffffffffffffffffffffffffffffff1673ffffffffffffffffffffffffffffffffffffffff1681526020016003820154815260200160048201805461160c9061226a565b80601f01602080910402602001604051908101604052809291908181526020018280546116389061226a565b80156116855780601f1061165a57610100808354040283529160200191611685565b820191906000526020600020905b81548152906001019060200180831161166857829003601f168201915b505050505081526020016005820154815260200160068201548152602001600782015481526020016008820160009054906101000a900460ff1660028111156116f7577f4e487b7100000000000000000000000000000000000000000000000000000000600052602160045260246000fd5b600281111561172f577f4e487b7100000000000000000000000000000000000000000000000000000000600052602160045260246000fd5b81526020016009820154815250509050919050565b8280546117509061226a565b90600052602060002090601f01602090048101928261177257600085556117b9565b82601f1061178b57805160ff19168380011785556117b9565b828001600101855582156117b9579182015b828111156117b857825182559160200191906001019061179d565b5b5090506117c6919061186b565b5090565b6040518061014001604052806000815260200160608152602001600073ffffffffffffffffffffffffffffffffffffffff16815260200160008152602001606081526020016000815260200160008152602001600081526020016000600281111561185e577f4e487b7100000000000000000000000000000000000000000000000000000000600052602160045260246000fd5b8152602001600081525090565b5b8082111561188457600081600090555060010161186c565b5090565b600061189b6118968461203d565b61200c565b9050828152602081018484840111156118b357600080fd5b6118be848285612228565b509392505050565b6000813590506118d5816123c6565b92915050565b600082601f8301126118ec57600080fd5b81356118fc848260208601611888565b91505092915050565b600081359050611914816123dd565b92915050565b600081359050611929816123f4565b92915050565b60006020828403121561194157600080fd5b600061194f848285016118c6565b91505092915050565b6000806040838503121561196b57600080fd5b600083013567ffffffffffffffff81111561198557600080fd5b611991858286016118db565b925050602083013567ffffffffffffffff8111156119ae57600080fd5b6119ba858286016118db565b9150509250929050565b6000602082840312156119d657600080fd5b60006119e484828501611905565b91505092915050565b60008060408385031215611a0057600080fd5b6000611a0e85828601611905565b9250506020611a1f8582860161191a565b9150509250929050565b6000611a358383611a55565b60208301905092915050565b6000611a4d8383611d1a565b905092915050565b611a5e81612196565b82525050565b6000611a6f8261208d565b611a7981856120c8565b9350611a848361206d565b8060005b83811015611ab5578151611a9c8882611a29565b9750611aa7836120ae565b925050600181019050611a88565b5085935050505092915050565b6000611acd82612098565b611ad781856120d9565b935083602082028501611ae98561207d565b8060005b85811015611b255784840389528151611b068582611a41565b9450611b11836120bb565b925060208a01995050600181019050611aed565b50829750879550505050505092915050565b611b40816121f2565b82525050565b611b4f81612216565b82525050565b6000611b60826120a3565b611b6a81856120ea565b9350611b7a818560208601612237565b611b83816123a1565b840191505092915050565b6000611b9b6022836120fb565b91507f70726f706f73616c20646f65736e2774206578697374206f7220696e76616c6960008301527f64200000000000000000000000000000000000000000000000000000000000006020830152604082019050919050565b6000611c01600d836120fb565b91507f416c726561647920766f746564000000000000000000000000000000000000006000830152602082019050919050565b6000611c416025836120fb565b91507f70726f6a65637420646f65736e2774206578697374206f72206e6f742076657260008301527f69666965640000000000000000000000000000000000000000000000000000006020830152604082019050919050565b6000611ca7600f836120fb565b91507f416c7265616479207570766f74656400000000000000000000000000000000006000830152602082019050919050565b6000611ce7601c836120fb565b91507f20766572696669636174696f6e20697320696e2070726f6772657373000000006000830152602082019050919050565b600061014083016000830151611d336000860182611edc565b5060208301518482036020860152611d4b8282611b55565b9150506040830151611d606040860182611a55565b506060830151611d736060860182611edc565b5060808301518482036080860152611d8b8282611b55565b91505060a0830151611da060a0860182611edc565b5060c0830151611db360c0860182611edc565b5060e0830151611dc660e0860182611edc565b50610100830151611ddb610100860182611b46565b50610120830151611df0610120860182611edc565b508091505092915050565b600061014083016000830151611e146000860182611edc565b5060208301518482036020860152611e2c8282611b55565b9150506040830151611e416040860182611a55565b506060830151611e546060860182611edc565b5060808301518482036080860152611e6c8282611b55565b91505060a0830151611e8160a0860182611edc565b5060c0830151611e9460c0860182611edc565b5060e0830151611ea760e0860182611edc565b50610100830151611ebc610100860182611b46565b50610120830151611ed1610120860182611edc565b508091505092915050565b611ee5816121db565b82525050565b60006020820190508181036000830152611f058184611a64565b905092915050565b60006020820190508181036000830152611f278184611ac2565b905092915050565b6000602082019050611f446000830184611b37565b92915050565b60006020820190508181036000830152611f6381611b8e565b9050919050565b60006020820190508181036000830152611f8381611bf4565b9050919050565b60006020820190508181036000830152611fa381611c34565b9050919050565b60006020820190508181036000830152611fc381611c9a565b9050919050565b60006020820190508181036000830152611fe381611cda565b9050919050565b600060208201905081810360008301526120048184611dfb565b905092915050565b6000604051905081810181811067ffffffffffffffff8211171561203357612032612372565b5b8060405250919050565b600067ffffffffffffffff82111561205857612057612372565b5b601f19601f8301169050602081019050919050565b6000819050602082019050919050565b6000819050602082019050919050565b600081519050919050565b600081519050919050565b600081519050919050565b6000602082019050919050565b6000602082019050919050565b600082825260208201905092915050565b600082825260208201905092915050565b600082825260208201905092915050565b600082825260208201905092915050565b6000612117826121db565b9150612122836121db565b9250827fffffffffffffffffffffffffffffffffffffffffffffffffffffffffffffffff03821115612157576121566122e5565b5b828201905092915050565b600061216d826121db565b9150612178836121db565b92508282101561218b5761218a6122e5565b5b828203905092915050565b60006121a1826121bb565b9050919050565b60008190506121b6826123b2565b919050565b600073ffffffffffffffffffffffffffffffffffffffff82169050919050565b6000819050919050565b600060ff82169050919050565b60006121fd82612204565b9050919050565b600061220f826121bb565b9050919050565b6000612221826121a8565b9050919050565b82818337600083830152505050565b60005b8381101561225557808201518184015260208101905061223a565b83811115612264576000848401525b50505050565b6000600282049050600182168061228257607f821691505b6020821081141561229657612295612343565b5b50919050565b60006122a7826121db565b91507fffffffffffffffffffffffffffffffffffffffffffffffffffffffffffffffff8214156122da576122d96122e5565b5b600182019050919050565b7f4e487b7100000000000000000000000000000000000000000000000000000000600052601160045260246000fd5b7f4e487b7100000000000000000000000000000000000000000000000000000000600052602160045260246000fd5b7f4e487b7100000000000000000000000000000000000000000000000000000000600052602260045260246000fd5b7f4e487b7100000000000000000000000000000000000000000000000000000000600052604160045260246000fd5b6000601f19601f8301169050919050565b600381106123c3576123c2612314565b5b50565b6123cf81612196565b81146123da57600080fd5b50565b6123e6816121db565b81146123f157600080fd5b50565b6123fd816121e5565b811461240857600080fd5b5056fea26469706673582212203ef8ac814af286dfdb08e49e5c45b9e720d71c849e43a0d56b956f8c01a5d1ee64736f6c63430008000033",
  "linkReferences": {},
  "deployedLinkReferences": {}
}